:1000000014C01BC01AC019C018C017C016C015C034
:1000100014C013C012C011C010C00FC00EC00DC05C
:100020000CC00BC00AC009C008C011241FBECFE518
:10003000D1E0DEBFCDBF43D060C0E2CF282F8130FA
:1000400029F008F429C0823049F403C08BBB1BBAE5
:10005000089581E08BBB00001BBA089563E041D096
:10006000382F6DEF35D0820F813051F018F082308B
:1000700099F40CC081E08BBB3A95F1F71BBA089557
:100080008BBB00003A95F1F71BBA089581E08BBB5A
:1000900000C03A95F1F71BBA0895CF9381E082BB77
:1000A000C0E08C2FCBDFCF5FCF3FD9F712BAC0E0D3
:1000B0008C2FC4DFCF5FCF3FD9F7CF91089580E871
:1000C00086BD16BC81E081BB83E08ABBE6DFFECF44
:1000D000002480FD060E660F11F08695D1F7802D65
:1000E0000895991B79E004C0991F961708F0961B94
:0E00F000881F7A95C9F780950895F894FFCF80
:00000001FF
