:1000000014C01BC01AC019C018C017C016C015C034
:1000100014C013C012C011C010C00FC00EC00DC05C
:100020000CC00BC00AC009C008C011241FBECFE518
:10003000D1E0DEBFCDBF53D05BC0E2CF813039F01D
:1000400008F43AC0823031F0833071F408C08BBBC1
:100050001BBA089581E08BBB00001BBA089581E0B4
:100060008BBB00C01BBA0895982F96959695837008
:10007000823091F08330C1F0813039F081E08BBB68
:100080009A950000E9F71BBA08958BBB9A9500007A
:10009000E9F700001BBA089581E08BBB9A95000038
:1000A000E9F700C01BBA089581E08BBB9A95000068
:1000B000E9F700C000001BBA0895CF9381E082BB2E
:1000C000C0E08C2FBBDFCF5FCF3FD9F712BAC0E0C3
:1000D0008C2FB4DFCF5FCF3FD9F7CF91089580E861
:1000E00086BD16BC81E081BB83E08ABBE6DFFECF24
:0400F000F894FFCFB2
:00000001FF
