:1000000014C01BC01AC019C018C017C016C015C034
:1000100014C013C012C011C010C00FC00EC00DC05C
:100020000CC00BC00AC009C008C011241FBECFE518
:10003000D1E0DEBFCDBF9BD0A4C0E2CF81E082BBC8
:1000400091E021E0892F8150813009F18130C0F0A9
:10005000823009F451C0833009F449C0382F3695F5
:1000600036958370823009F47BC0833009F470C008
:10007000813009F466C02BBB3A950000E9F71BBA42
:100080009F3F49F09F5F892F81508130F9F68BBBEC
:100090001BBA9F5FF8CF12BA91E021E0892F8150FF
:1000A000813001F18130B8F0823009F42FC0833003
:1000B00041F1382F369536958370823009F433C07C
:1000C000833009F428C0813009F434C02BBB3A9541
:1000D0000000E9F71BBA9F3F49F09F5F892F8150CD
:1000E000813001F78BBB1BBA9F5FF8CF08952BBB04
:1000F00000C01BBA9F5FC7CF2BBB00001BBA9F5F1E
:10010000C2CF2BBB00C01BBA9F5FE8CF2BBB000048
:100110001BBA9F5FE3CF2BBB3A950000E9F700C005
:1001200000001BBAD8CF2BBB3A950000E9F700C0FE
:100130001BBAD1CF8BBB3A950000E9F700001BBA80
:10014000CACF8BBB3A950000E9F700001BBA98CFE5
:100150002BBB3A950000E9F700C000001BBA90CF16
:100160002BBB3A950000E9F700C01BBA89CF80E8A5
:1001700086BD16BC81E081BB83E08ABB5FDF5EDFAA
:06018000FDCFF894FFCF53
:00000001FF
