:1000000014C01BC01AC019C018C017C016C015C034
:1000100014C013C012C011C010C00FC00EC00DC05C
:100020000CC00BC00AC009C008C011241FBECFE518
:10003000D1E0DEBFCDBF83D09EC0E2CF81E082BBE6
:1000400031E041E0232F2150213011F12130C8F05F
:10005000223009F452C0822F90E06BEA70E079D030
:100060009695892F880F880F592F581B852F820F3F
:10007000813009F458C008F045C04BBB9A95F1F7A0
:100080001BBA3F3F49F03F5F232F21502130F1F64B
:100090002BBB1BBA3F5FF8CF12BA31E041E0232FF0
:1000A0002150213001F12130B8F0223009F1822FA6
:1000B00090E06BEA70E04DD09695892F880F880FFD
:1000C000592F581B852F820F813009F432C018F543
:1000D0004BBB9A95F1F71BBA3F3F49F03F5F232F87
:1000E0002150213001F72BBB1BBA3F5FF8CF089599
:1000F0004BBB00001BBA3F5FF2CF4BBB00001BBAEB
:100100003F5FC2CF823009F0BCCF4BBB00C09A9595
:10011000F1F71BBAB6CF8230F9F64BBB00C09A9507
:10012000F1F71BBAD9CF8BBB00009A95F1F71BBA38
:10013000A8CF8BBB00009A95F1F71BBACDCF80E812
:1001400086BD16BC81E081BB83E08ABB77DF76DFAA
:10015000FDCF5527002480FF02C0060E571F660FF3
:10016000771F6115710521F096958795009799F78E
:0A017000952F802D0895F894FFCF1D
:00000001FF
